{
  "contractName": "Trace",
  "abi": [
    {
      "constant": false,
      "inputs": [
        {
          "internalType": "uint256",
          "name": "id",
          "type": "uint256"
        },
        {
          "internalType": "string",
          "name": "hash",
          "type": "string"
        }
      ],
      "name": "addHash",
      "outputs": [],
      "payable": false,
      "stateMutability": "nonpayable",
      "type": "function"
    },
    {
      "constant": true,
      "inputs": [
        {
          "internalType": "uint256",
          "name": "id",
          "type": "uint256"
        }
      ],
      "name": "getHash",
      "outputs": [
        {
          "internalType": "string",
          "name": "",
          "type": "string"
        }
      ],
      "payable": false,
      "stateMutability": "view",
      "type": "function"
    }
  ],
  "bytecode": "0x608060405234801561001057600080fd5b5061037d806100206000396000f3fe608060405234801561001057600080fd5b5060043610610053576000357c0100000000000000000000000000000000000000000000000000000000900480636b2fafa914610058578063cab36e92146100ff575b600080fd5b6100846004803603602081101561006e57600080fd5b81019080803590602001909291905050506101c4565b6040518080602001828103825283818151815260200191508051906020019080838360005b838110156100c45780820151818401526020810190506100a9565b50505050905090810190601f1680156100f15780820380516001836020036101000a031916815260200191505b509250505060405180910390f35b6101c26004803603604081101561011557600080fd5b81019080803590602001909291908035906020019064010000000081111561013c57600080fd5b82018360208201111561014e57600080fd5b8035906020019184600183028401116401000000008311171561017057600080fd5b91908080601f016020809104026020016040519081016040528093929190818152602001838380828437600081840152601f19601f820116905080830192505050505050509192919290505050610278565b005b60606000808381526020019081526020016000208054600181600116156101000203166002900480601f01602080910402602001604051908101604052809291908181526020018280546001816001161561010002031660029004801561026c5780601f106102415761010080835404028352916020019161026c565b820191906000526020600020905b81548152906001019060200180831161024f57829003601f168201915b50505050509050919050565b80600080848152602001908152602001600020908051906020019061029e9291906102a3565b505050565b828054600181600116156101000203166002900490600052602060002090601f016020900481019282601f106102e457805160ff1916838001178555610312565b82800160010185558215610312579182015b828111156103115782518255916020019190600101906102f6565b5b50905061031f9190610323565b5090565b61034591905b80821115610341576000816000905550600101610329565b5090565b9056fea265627a7a723158207af7dfe3e7bdcf2d319a9bde7d62b557774486b193c5050692cfa16f06dadc4a64736f6c63430005100032",
  "source": "// SPDX-License-Identifier: MIT\r\npragma solidity >=0.4.22 <0.9.0;\r\n\r\ncontract Trace {\r\n \r\n mapping(uint256 => string) hashes;\r\n\r\n function addHash(uint256 id, string memory hash) public {\r\n   hashes[id] = hash;\r\n }\r\n\r\n function getHash(uint256 id) public view returns (string memory) {\r\n   return hashes[id];\r\n }\r\n}",
  "sourcePath": "F:\\project\\Transportation-blockchain\\blockchain\\contracts\\Trace.sol",
  "compiler": {
    "name": "solc",
    "version": "0.5.16+commit.9c3226ce.Emscripten.clang"
  },
  "schemaVersion": "3.4.3",
  "updatedAt": "2021-09-26T07:22:25.786Z",
  "networkType": "ethereum",
  "devdoc": {
    "methods": {}
  },
  "userdoc": {
    "methods": {}
  }
}